{
  "_format": "hh-sol-artifact-1",
  "contractName": "WavePortal",
  "sourceName": "contracts/WavePortal.sol",
  "abi": [
    {
      "inputs": [],
      "stateMutability": "payable",
      "type": "constructor"
    },
    {
      "anonymous": false,
      "inputs": [
        {
          "indexed": true,
          "internalType": "address",
          "name": "from",
          "type": "address"
        },
        {
          "indexed": false,
          "internalType": "uint256",
          "name": "timestamp",
          "type": "uint256"
        },
        {
          "indexed": false,
          "internalType": "string",
          "name": "message",
          "type": "string"
        }
      ],
      "name": "NewWave",
      "type": "event"
    },
    {
      "inputs": [],
      "name": "getAllWaves",
      "outputs": [
        {
          "components": [
            {
              "internalType": "address",
              "name": "waver",
              "type": "address"
            },
            {
              "internalType": "string",
              "name": "message",
              "type": "string"
            },
            {
              "internalType": "uint256",
              "name": "timestamp",
              "type": "uint256"
            }
          ],
          "internalType": "struct WavePortal.Wave[]",
          "name": "",
          "type": "tuple[]"
        }
      ],
      "stateMutability": "view",
      "type": "function"
    },
    {
      "inputs": [],
      "name": "getLastWaver",
      "outputs": [
        {
          "internalType": "string",
          "name": "",
          "type": "string"
        }
      ],
      "stateMutability": "view",
      "type": "function"
    },
    {
      "inputs": [],
      "name": "getTotalWaves",
      "outputs": [
        {
          "internalType": "uint256",
          "name": "",
          "type": "uint256"
        }
      ],
      "stateMutability": "view",
      "type": "function"
    },
    {
      "inputs": [
        {
          "internalType": "string",
          "name": "_message",
          "type": "string"
        }
      ],
      "name": "wave",
      "outputs": [],
      "stateMutability": "nonpayable",
      "type": "function"
    }
  ],
  "bytecode": "0x608060405262000033604051806080016040528060458152602001620018ce604591396200003960201b620006511760201c565b620001cd565b620000d98160405160240162000050919062000146565b6040516020818303038152906040527f41304fac000000000000000000000000000000000000000000000000000000007bffffffffffffffffffffffffffffffffffffffffffffffffffffffff19166020820180517bffffffffffffffffffffffffffffffffffffffffffffffffffffffff8381831617835250505050620000dc60201b60201c565b50565b60008151905060006a636f6e736f6c652e6c6f679050602083016000808483855afa5050505050565b600062000112826200016a565b6200011e818562000175565b93506200013081856020860162000186565b6200013b81620001bc565b840191505092915050565b6000602082019050818103600083015262000162818462000105565b905092915050565b600081519050919050565b600082825260208201905092915050565b60005b83811015620001a657808201518184015260208101905062000189565b83811115620001b6576000848401525b50505050565b6000601f19601f8301169050919050565b6116f180620001dd6000396000f3fe608060405234801561001057600080fd5b506004361061004c5760003560e01c80632bce00e214610051578063449d46c01461006f5780639a2cdc081461008b578063bd43a908146100a9575b600080fd5b6100596100c7565b6040516100669190610ed8565b60405180910390f35b61008960048036038101906100849190610c70565b610222565b005b6100936104b5565b6040516100a09190610fe6565b60405180910390f35b6100b1610500565b6040516100be9190610eb6565b60405180910390f35b60606101926040518060400160405280600d81526020017f2573207761766564206c617374000000000000000000000000000000000000008152506001805461010f906114e0565b80601f016020809104026020016040519081016040528092919081815260200182805461013b906114e0565b80156101885780601f1061015d57610100808354040283529160200191610188565b820191906000526020600020905b81548152906001019060200180831161016b57829003601f168201915b50505050506106ea565b6001805461019f906114e0565b80601f01602080910402602001604051908101604052809291908181526020018280546101cb906114e0565b80156102185780601f106101ed57610100808354040283529160200191610218565b820191906000526020600020905b8154815290600101906020018083116101fb57829003601f168201915b5050505050905090565b600160008082825461023491906110f8565b9250508190555061024433610786565b60019080519060200190610259929190610b65565b5061029a6040518060400160405280600f81526020017f257320776176656420772f20257321000000000000000000000000000000000081525033836109bb565b600260405180606001604052803373ffffffffffffffffffffffffffffffffffffffff16815260200183815260200142815250908060018154018082558091505060019003906000526020600020906003020160009091909190915060008201518160000160006101000a81548173ffffffffffffffffffffffffffffffffffffffff021916908373ffffffffffffffffffffffffffffffffffffffff1602179055506020820151816001019080519060200190610359929190610b65565b506040820151816002015550503373ffffffffffffffffffffffffffffffffffffffff167f5f7e16dc676677766a70e9c5628aa6c54ddb8b6e5188e2ae1e1f17f1ffbea71642836040516103ae929190611001565b60405180910390a260006509184e72a000905047811115610404576040517f08c379a00000000000000000000000000000000000000000000000000000000081526004016103fb90610fa6565b60405180910390fd5b60003373ffffffffffffffffffffffffffffffffffffffff168260405161042a90610ea1565b60006040518083038185875af1925050503d8060008114610467576040519150601f19603f3d011682016040523d82523d6000602084013e61046c565b606091505b50509050806104b0576040517f08c379a00000000000000000000000000000000000000000000000000000000081526004016104a790610fc6565b60405180910390fd5b505050565b60006104f86040518060400160405280601681526020017f5765206861766520256420746f74616c20776176657300000000000000000000815250600054610a5a565b600054905090565b60606002805480602002602001604051908101604052809291908181526020016000905b8282101561064857838290600052602060002090600302016040518060600160405290816000820160009054906101000a900473ffffffffffffffffffffffffffffffffffffffff1673ffffffffffffffffffffffffffffffffffffffff1673ffffffffffffffffffffffffffffffffffffffff1681526020016001820180546105ad906114e0565b80601f01602080910402602001604051908101604052809291908181526020018280546105d9906114e0565b80156106265780601f106105fb57610100808354040283529160200191610626565b820191906000526020600020905b81548152906001019060200180831161060957829003601f168201915b5050505050815260200160028201548152505081526020019060010190610524565b50505050905090565b6106e7816040516024016106659190610ed8565b6040516020818303038152906040527f41304fac000000000000000000000000000000000000000000000000000000007bffffffffffffffffffffffffffffffffffffffffffffffffffffffff19166020820180517bffffffffffffffffffffffffffffffffffffffffffffffffffffffff8381831617835250505050610af6565b50565b6107828282604051602401610700929190610f3f565b6040516020818303038152906040527f4b5c4277000000000000000000000000000000000000000000000000000000007bffffffffffffffffffffffffffffffffffffffffffffffffffffffff19166020820180517bffffffffffffffffffffffffffffffffffffffffffffffffffffffff8381831617835250505050610af6565b5050565b60606000602867ffffffffffffffff8111156107cb577f4e487b7100000000000000000000000000000000000000000000000000000000600052604160045260246000fd5b6040519080825280601f01601f1916602001820160405280156107fd5781602001600182028036833780820191505090505b50905060005b60148110156109b157600081601361081b91906113ed565b60086108279190611358565b6002610833919061123a565b8573ffffffffffffffffffffffffffffffffffffffff166108549190611185565b60f81b9050600060108260f81c61086b91906111b6565b60f81b905060008160f81c601061088291906113b2565b8360f81c6108909190611421565b60f81b905061089e82610b1f565b858560026108ac9190611358565b815181106108e3577f4e487b7100000000000000000000000000000000000000000000000000000000600052603260045260246000fd5b60200101907effffffffffffffffffffffffffffffffffffffffffffffffffffffffffffff1916908160001a90535061091b81610b1f565b85600186600261092b9190611358565b61093591906110f8565b8151811061096c577f4e487b7100000000000000000000000000000000000000000000000000000000600052603260045260246000fd5b60200101907effffffffffffffffffffffffffffffffffffffffffffffffffffffffffffff1916908160001a90535050505080806109a990611543565b915050610803565b5080915050919050565b610a558383836040516024016109d393929190610efa565b6040516020818303038152906040527fe0e9ad4f000000000000000000000000000000000000000000000000000000007bffffffffffffffffffffffffffffffffffffffffffffffffffffffff19166020820180517bffffffffffffffffffffffffffffffffffffffffffffffffffffffff8381831617835250505050610af6565b505050565b610af28282604051602401610a70929190610f76565b6040516020818303038152906040527f9710a9d0000000000000000000000000000000000000000000000000000000007bffffffffffffffffffffffffffffffffffffffffffffffffffffffff19166020820180517bffffffffffffffffffffffffffffffffffffffffffffffffffffffff8381831617835250505050610af6565b5050565b60008151905060006a636f6e736f6c652e6c6f679050602083016000808483855afa5050505050565b6000600a8260f81c60ff161015610b4a5760308260f81c610b40919061114e565b60f81b9050610b60565b60578260f81c610b5a919061114e565b60f81b90505b919050565b828054610b71906114e0565b90600052602060002090601f016020900481019282610b935760008555610bda565b82601f10610bac57805160ff1916838001178555610bda565b82800160010185558215610bda579182015b82811115610bd9578251825591602001919060010190610bbe565b5b509050610be79190610beb565b5090565b5b80821115610c04576000816000905550600101610bec565b5090565b6000610c1b610c1684611056565b611031565b905082815260208101848484011115610c3357600080fd5b610c3e84828561149e565b509392505050565b600082601f830112610c5757600080fd5b8135610c67848260208601610c08565b91505092915050565b600060208284031215610c8257600080fd5b600082013567ffffffffffffffff811115610c9c57600080fd5b610ca884828501610c46565b91505092915050565b6000610cbd8383610e33565b905092915050565b610cce81611455565b82525050565b610cdd81611455565b82525050565b6000610cee82611097565b610cf881856110ba565b935083602082028501610d0a85611087565b8060005b85811015610d465784840389528151610d278582610cb1565b9450610d32836110ad565b925060208a01995050600181019050610d0e565b50829750879550505050505092915050565b6000610d63826110a2565b610d6d81856110d6565b9350610d7d8185602086016114ad565b610d8681611648565b840191505092915050565b6000610d9c826110a2565b610da681856110e7565b9350610db68185602086016114ad565b610dbf81611648565b840191505092915050565b6000610dd7601d836110e7565b9150610de282611666565b602082019050919050565b6000610dfa6019836110e7565b9150610e058261168f565b602082019050919050565b6000610e1d6000836110cb565b9150610e28826116b8565b600082019050919050565b6000606083016000830151610e4b6000860182610cc5565b5060208301518482036020860152610e638282610d58565b9150506040830151610e786040860182610e83565b508091505092915050565b610e8c81611487565b82525050565b610e9b81611487565b82525050565b6000610eac82610e10565b9150819050919050565b60006020820190508181036000830152610ed08184610ce3565b905092915050565b60006020820190508181036000830152610ef28184610d91565b905092915050565b60006060820190508181036000830152610f148186610d91565b9050610f236020830185610cd4565b8181036040830152610f358184610d91565b9050949350505050565b60006040820190508181036000830152610f598185610d91565b90508181036020830152610f6d8184610d91565b90509392505050565b60006040820190508181036000830152610f908185610d91565b9050610f9f6020830184610e92565b9392505050565b60006020820190508181036000830152610fbf81610dca565b9050919050565b60006020820190508181036000830152610fdf81610ded565b9050919050565b6000602082019050610ffb6000830184610e92565b92915050565b60006040820190506110166000830185610e92565b81810360208301526110288184610d91565b90509392505050565b600061103b61104c565b90506110478282611512565b919050565b6000604051905090565b600067ffffffffffffffff82111561107157611070611619565b5b61107a82611648565b9050602081019050919050565b6000819050602082019050919050565b600081519050919050565b600081519050919050565b6000602082019050919050565b600082825260208201905092915050565b600081905092915050565b600082825260208201905092915050565b600082825260208201905092915050565b600061110382611487565b915061110e83611487565b9250827fffffffffffffffffffffffffffffffffffffffffffffffffffffffffffffffff038211156111435761114261158c565b5b828201905092915050565b600061115982611491565b915061116483611491565b92508260ff0382111561117a5761117961158c565b5b828201905092915050565b600061119082611487565b915061119b83611487565b9250826111ab576111aa6115bb565b5b828204905092915050565b60006111c182611491565b91506111cc83611491565b9250826111dc576111db6115bb565b5b828204905092915050565b6000808291508390505b60018511156112315780860481111561120d5761120c61158c565b5b600185161561121c5780820291505b808102905061122a85611659565b94506111f1565b94509492505050565b600061124582611487565b915061125083611487565b925061127d7fffffffffffffffffffffffffffffffffffffffffffffffffffffffffffffffff8484611285565b905092915050565b6000826112955760019050611351565b816112a35760009050611351565b81600181146112b957600281146112c3576112f2565b6001915050611351565b60ff8411156112d5576112d461158c565b5b8360020a9150848211156112ec576112eb61158c565b5b50611351565b5060208310610133831016604e8410600b84101617156113275782820a9050838111156113225761132161158c565b5b611351565b61133484848460016111e7565b9250905081840481111561134b5761134a61158c565b5b81810290505b9392505050565b600061136382611487565b915061136e83611487565b9250817fffffffffffffffffffffffffffffffffffffffffffffffffffffffffffffffff04831182151516156113a7576113a661158c565b5b828202905092915050565b60006113bd82611491565b91506113c883611491565b92508160ff04831182151516156113e2576113e161158c565b5b828202905092915050565b60006113f882611487565b915061140383611487565b9250828210156114165761141561158c565b5b828203905092915050565b600061142c82611491565b915061143783611491565b92508282101561144a5761144961158c565b5b828203905092915050565b600061146082611467565b9050919050565b600073ffffffffffffffffffffffffffffffffffffffff82169050919050565b6000819050919050565b600060ff82169050919050565b82818337600083830152505050565b60005b838110156114cb5780820151818401526020810190506114b0565b838111156114da576000848401525b50505050565b600060028204905060018216806114f857607f821691505b6020821081141561150c5761150b6115ea565b5b50919050565b61151b82611648565b810181811067ffffffffffffffff8211171561153a57611539611619565b5b80604052505050565b600061154e82611487565b91507fffffffffffffffffffffffffffffffffffffffffffffffffffffffffffffffff8214156115815761158061158c565b5b600182019050919050565b7f4e487b7100000000000000000000000000000000000000000000000000000000600052601160045260246000fd5b7f4e487b7100000000000000000000000000000000000000000000000000000000600052601260045260246000fd5b7f4e487b7100000000000000000000000000000000000000000000000000000000600052602260045260246000fd5b7f4e487b7100000000000000000000000000000000000000000000000000000000600052604160045260246000fd5b6000601f19601f8301169050919050565b60008160011c9050919050565b7f4f6f7073206e6f206d6f726520636f6e6365707475616c206275636b73000000600082015250565b7f4661696c656420746f2073656e64207465206d6f6f6e69657300000000000000600082015250565b5056fea2646970667358221220878d009d5a0c66274246ae6501f8b3ea4ceef73a200010ac3fb6ff7bbdff70ea64736f6c6343000804003369662077652068617665206120646563656e7472616c697a6564207765622c20686f77206973206d722e2073706964657220676f696e6720746f2063617463682062756773",
  "linkReferences": {},
  "deployedLinkReferences": {}
}