{
  "_format": "hh-sol-artifact-1",
  "contractName": "WavePortal",
  "sourceName": "contracts/WavePortal.sol",
  "abi": [
    {
      "inputs": [],
      "stateMutability": "nonpayable",
      "type": "constructor"
    },
    {
      "anonymous": false,
      "inputs": [
        {
          "indexed": true,
          "internalType": "address",
          "name": "from",
          "type": "address"
        },
        {
          "indexed": false,
          "internalType": "uint256",
          "name": "timestamp",
          "type": "uint256"
        },
        {
          "indexed": false,
          "internalType": "string",
          "name": "message",
          "type": "string"
        }
      ],
      "name": "NewWave",
      "type": "event"
    },
    {
      "inputs": [],
      "name": "getAllWaves",
      "outputs": [
        {
          "components": [
            {
              "internalType": "address",
              "name": "waver",
              "type": "address"
            },
            {
              "internalType": "string",
              "name": "message",
              "type": "string"
            },
            {
              "internalType": "uint256",
              "name": "timestamp",
              "type": "uint256"
            }
          ],
          "internalType": "struct WavePortal.Wave[]",
          "name": "",
          "type": "tuple[]"
        }
      ],
      "stateMutability": "view",
      "type": "function"
    },
    {
      "inputs": [],
      "name": "getLastWaver",
      "outputs": [
        {
          "internalType": "string",
          "name": "",
          "type": "string"
        }
      ],
      "stateMutability": "view",
      "type": "function"
    },
    {
      "inputs": [],
      "name": "getTotalWaves",
      "outputs": [
        {
          "internalType": "uint256",
          "name": "",
          "type": "uint256"
        }
      ],
      "stateMutability": "view",
      "type": "function"
    },
    {
      "inputs": [
        {
          "internalType": "string",
          "name": "_message",
          "type": "string"
        }
      ],
      "name": "wave",
      "outputs": [],
      "stateMutability": "nonpayable",
      "type": "function"
    }
  ],
  "bytecode": "0x60806040523480156200001157600080fd5b5062000041604051806080016040528060458152602001620016c2604591396200004760201b620005551760201c565b620001db565b620000e7816040516024016200005e919062000154565b6040516020818303038152906040527f41304fac000000000000000000000000000000000000000000000000000000007bffffffffffffffffffffffffffffffffffffffffffffffffffffffff19166020820180517bffffffffffffffffffffffffffffffffffffffffffffffffffffffff8381831617835250505050620000ea60201b60201c565b50565b60008151905060006a636f6e736f6c652e6c6f679050602083016000808483855afa5050505050565b6000620001208262000178565b6200012c818562000183565b93506200013e81856020860162000194565b6200014981620001ca565b840191505092915050565b6000602082019050818103600083015262000170818462000113565b905092915050565b600081519050919050565b600082825260208201905092915050565b60005b83811015620001b457808201518184015260208101905062000197565b83811115620001c4576000848401525b50505050565b6000601f19601f8301169050919050565b6114d780620001eb6000396000f3fe608060405234801561001057600080fd5b506004361061004c5760003560e01c80632bce00e214610051578063449d46c01461006f5780639a2cdc081461008b578063bd43a908146100a9575b600080fd5b6100596100c7565b6040516100669190610d5e565b60405180910390f35b61008960048036038101906100849190610b74565b610222565b005b6100936103b9565b6040516100a09190610e2c565b60405180910390f35b6100b1610404565b6040516100be9190610d3c565b60405180910390f35b60606101926040518060400160405280600d81526020017f2573207761766564206c617374000000000000000000000000000000000000008152506001805461010f9061131b565b80601f016020809104026020016040519081016040528092919081815260200182805461013b9061131b565b80156101885780601f1061015d57610100808354040283529160200191610188565b820191906000526020600020905b81548152906001019060200180831161016b57829003601f168201915b50505050506105ee565b6001805461019f9061131b565b80601f01602080910402602001604051908101604052809291908181526020018280546101cb9061131b565b80156102185780601f106101ed57610100808354040283529160200191610218565b820191906000526020600020905b8154815290600101906020018083116101fb57829003601f168201915b5050505050905090565b60016000808282546102349190610f33565b925050819055506102443361068a565b60019080519060200190610259929190610a69565b5061029a6040518060400160405280600f81526020017f257320776176656420772f20257321000000000000000000000000000000000081525033836108bf565b600260405180606001604052803373ffffffffffffffffffffffffffffffffffffffff16815260200183815260200142815250908060018154018082558091505060019003906000526020600020906003020160009091909190915060008201518160000160006101000a81548173ffffffffffffffffffffffffffffffffffffffff021916908373ffffffffffffffffffffffffffffffffffffffff1602179055506020820151816001019080519060200190610359929190610a69565b506040820151816002015550503373ffffffffffffffffffffffffffffffffffffffff167f5f7e16dc676677766a70e9c5628aa6c54ddb8b6e5188e2ae1e1f17f1ffbea71642836040516103ae929190610e47565b60405180910390a250565b60006103fc6040518060400160405280601681526020017f5765206861766520256420746f74616c2077617665730000000000000000000081525060005461095e565b600054905090565b60606002805480602002602001604051908101604052809291908181526020016000905b8282101561054c57838290600052602060002090600302016040518060600160405290816000820160009054906101000a900473ffffffffffffffffffffffffffffffffffffffff1673ffffffffffffffffffffffffffffffffffffffff1673ffffffffffffffffffffffffffffffffffffffff1681526020016001820180546104b19061131b565b80601f01602080910402602001604051908101604052809291908181526020018280546104dd9061131b565b801561052a5780601f106104ff5761010080835404028352916020019161052a565b820191906000526020600020905b81548152906001019060200180831161050d57829003601f168201915b5050505050815260200160028201548152505081526020019060010190610428565b50505050905090565b6105eb816040516024016105699190610d5e565b6040516020818303038152906040527f41304fac000000000000000000000000000000000000000000000000000000007bffffffffffffffffffffffffffffffffffffffffffffffffffffffff19166020820180517bffffffffffffffffffffffffffffffffffffffffffffffffffffffff83818316178352505050506109fa565b50565b6106868282604051602401610604929190610dc5565b6040516020818303038152906040527f4b5c4277000000000000000000000000000000000000000000000000000000007bffffffffffffffffffffffffffffffffffffffffffffffffffffffff19166020820180517bffffffffffffffffffffffffffffffffffffffffffffffffffffffff83818316178352505050506109fa565b5050565b60606000602867ffffffffffffffff8111156106cf577f4e487b7100000000000000000000000000000000000000000000000000000000600052604160045260246000fd5b6040519080825280601f01601f1916602001820160405280156107015781602001600182028036833780820191505090505b50905060005b60148110156108b557600081601361071f9190611228565b600861072b9190611193565b60026107379190611075565b8573ffffffffffffffffffffffffffffffffffffffff166107589190610fc0565b60f81b9050600060108260f81c61076f9190610ff1565b60f81b905060008160f81c601061078691906111ed565b8360f81c610794919061125c565b60f81b90506107a282610a23565b858560026107b09190611193565b815181106107e7577f4e487b7100000000000000000000000000000000000000000000000000000000600052603260045260246000fd5b60200101907effffffffffffffffffffffffffffffffffffffffffffffffffffffffffffff1916908160001a90535061081f81610a23565b85600186600261082f9190611193565b6108399190610f33565b81518110610870577f4e487b7100000000000000000000000000000000000000000000000000000000600052603260045260246000fd5b60200101907effffffffffffffffffffffffffffffffffffffffffffffffffffffffffffff1916908160001a90535050505080806108ad9061137e565b915050610707565b5080915050919050565b6109598383836040516024016108d793929190610d80565b6040516020818303038152906040527fe0e9ad4f000000000000000000000000000000000000000000000000000000007bffffffffffffffffffffffffffffffffffffffffffffffffffffffff19166020820180517bffffffffffffffffffffffffffffffffffffffffffffffffffffffff83818316178352505050506109fa565b505050565b6109f68282604051602401610974929190610dfc565b6040516020818303038152906040527f9710a9d0000000000000000000000000000000000000000000000000000000007bffffffffffffffffffffffffffffffffffffffffffffffffffffffff19166020820180517bffffffffffffffffffffffffffffffffffffffffffffffffffffffff83818316178352505050506109fa565b5050565b60008151905060006a636f6e736f6c652e6c6f679050602083016000808483855afa5050505050565b6000600a8260f81c60ff161015610a4e5760308260f81c610a449190610f89565b60f81b9050610a64565b60578260f81c610a5e9190610f89565b60f81b90505b919050565b828054610a759061131b565b90600052602060002090601f016020900481019282610a975760008555610ade565b82601f10610ab057805160ff1916838001178555610ade565b82800160010185558215610ade579182015b82811115610add578251825591602001919060010190610ac2565b5b509050610aeb9190610aef565b5090565b5b80821115610b08576000816000905550600101610af0565b5090565b6000610b1f610b1a84610e9c565b610e77565b905082815260208101848484011115610b3757600080fd5b610b428482856112d9565b509392505050565b600082601f830112610b5b57600080fd5b8135610b6b848260208601610b0c565b91505092915050565b600060208284031215610b8657600080fd5b600082013567ffffffffffffffff811115610ba057600080fd5b610bac84828501610b4a565b91505092915050565b6000610bc18383610cce565b905092915050565b610bd281611290565b82525050565b610be181611290565b82525050565b6000610bf282610edd565b610bfc8185610f00565b935083602082028501610c0e85610ecd565b8060005b85811015610c4a5784840389528151610c2b8582610bb5565b9450610c3683610ef3565b925060208a01995050600181019050610c12565b50829750879550505050505092915050565b6000610c6782610ee8565b610c718185610f11565b9350610c818185602086016112e8565b610c8a81611483565b840191505092915050565b6000610ca082610ee8565b610caa8185610f22565b9350610cba8185602086016112e8565b610cc381611483565b840191505092915050565b6000606083016000830151610ce66000860182610bc9565b5060208301518482036020860152610cfe8282610c5c565b9150506040830151610d136040860182610d1e565b508091505092915050565b610d27816112c2565b82525050565b610d36816112c2565b82525050565b60006020820190508181036000830152610d568184610be7565b905092915050565b60006020820190508181036000830152610d788184610c95565b905092915050565b60006060820190508181036000830152610d9a8186610c95565b9050610da96020830185610bd8565b8181036040830152610dbb8184610c95565b9050949350505050565b60006040820190508181036000830152610ddf8185610c95565b90508181036020830152610df38184610c95565b90509392505050565b60006040820190508181036000830152610e168185610c95565b9050610e256020830184610d2d565b9392505050565b6000602082019050610e416000830184610d2d565b92915050565b6000604082019050610e5c6000830185610d2d565b8181036020830152610e6e8184610c95565b90509392505050565b6000610e81610e92565b9050610e8d828261134d565b919050565b6000604051905090565b600067ffffffffffffffff821115610eb757610eb6611454565b5b610ec082611483565b9050602081019050919050565b6000819050602082019050919050565b600081519050919050565b600081519050919050565b6000602082019050919050565b600082825260208201905092915050565b600082825260208201905092915050565b600082825260208201905092915050565b6000610f3e826112c2565b9150610f49836112c2565b9250827fffffffffffffffffffffffffffffffffffffffffffffffffffffffffffffffff03821115610f7e57610f7d6113c7565b5b828201905092915050565b6000610f94826112cc565b9150610f9f836112cc565b92508260ff03821115610fb557610fb46113c7565b5b828201905092915050565b6000610fcb826112c2565b9150610fd6836112c2565b925082610fe657610fe56113f6565b5b828204905092915050565b6000610ffc826112cc565b9150611007836112cc565b925082611017576110166113f6565b5b828204905092915050565b6000808291508390505b600185111561106c57808604811115611048576110476113c7565b5b60018516156110575780820291505b808102905061106585611494565b945061102c565b94509492505050565b6000611080826112c2565b915061108b836112c2565b92506110b87fffffffffffffffffffffffffffffffffffffffffffffffffffffffffffffffff84846110c0565b905092915050565b6000826110d0576001905061118c565b816110de576000905061118c565b81600181146110f457600281146110fe5761112d565b600191505061118c565b60ff8411156111105761110f6113c7565b5b8360020a915084821115611127576111266113c7565b5b5061118c565b5060208310610133831016604e8410600b84101617156111625782820a90508381111561115d5761115c6113c7565b5b61118c565b61116f8484846001611022565b92509050818404811115611186576111856113c7565b5b81810290505b9392505050565b600061119e826112c2565b91506111a9836112c2565b9250817fffffffffffffffffffffffffffffffffffffffffffffffffffffffffffffffff04831182151516156111e2576111e16113c7565b5b828202905092915050565b60006111f8826112cc565b9150611203836112cc565b92508160ff048311821515161561121d5761121c6113c7565b5b828202905092915050565b6000611233826112c2565b915061123e836112c2565b925082821015611251576112506113c7565b5b828203905092915050565b6000611267826112cc565b9150611272836112cc565b925082821015611285576112846113c7565b5b828203905092915050565b600061129b826112a2565b9050919050565b600073ffffffffffffffffffffffffffffffffffffffff82169050919050565b6000819050919050565b600060ff82169050919050565b82818337600083830152505050565b60005b838110156113065780820151818401526020810190506112eb565b83811115611315576000848401525b50505050565b6000600282049050600182168061133357607f821691505b6020821081141561134757611346611425565b5b50919050565b61135682611483565b810181811067ffffffffffffffff8211171561137557611374611454565b5b80604052505050565b6000611389826112c2565b91507fffffffffffffffffffffffffffffffffffffffffffffffffffffffffffffffff8214156113bc576113bb6113c7565b5b600182019050919050565b7f4e487b7100000000000000000000000000000000000000000000000000000000600052601160045260246000fd5b7f4e487b7100000000000000000000000000000000000000000000000000000000600052601260045260246000fd5b7f4e487b7100000000000000000000000000000000000000000000000000000000600052602260045260246000fd5b7f4e487b7100000000000000000000000000000000000000000000000000000000600052604160045260246000fd5b6000601f19601f8301169050919050565b60008160011c905091905056fea26469706673582212209f817c963b6c840f27c9ab3ebd01aabbcdcb46e507c51648d9805919c4e47e8e64736f6c6343000804003369662077652068617665206120646563656e7472616c697a6564207765622c20686f77206973206d722e2073706964657220676f696e6720746f2063617463682062756773",
  "linkReferences": {},
  "deployedLinkReferences": {}
}