{
  "_format": "hh-sol-artifact-1",
  "contractName": "WavePortal",
  "sourceName": "contracts/WavePortal.sol",
  "abi": [
    {
      "inputs": [],
      "stateMutability": "payable",
      "type": "constructor"
    },
    {
      "anonymous": false,
      "inputs": [
        {
          "indexed": true,
          "internalType": "address",
          "name": "from",
          "type": "address"
        },
        {
          "indexed": false,
          "internalType": "uint256",
          "name": "timestamp",
          "type": "uint256"
        },
        {
          "indexed": false,
          "internalType": "string",
          "name": "message",
          "type": "string"
        }
      ],
      "name": "NewWave",
      "type": "event"
    },
    {
      "inputs": [],
      "name": "getAllWaves",
      "outputs": [
        {
          "components": [
            {
              "internalType": "address",
              "name": "waver",
              "type": "address"
            },
            {
              "internalType": "string",
              "name": "message",
              "type": "string"
            },
            {
              "internalType": "uint256",
              "name": "timestamp",
              "type": "uint256"
            }
          ],
          "internalType": "struct WavePortal.Wave[]",
          "name": "",
          "type": "tuple[]"
        }
      ],
      "stateMutability": "view",
      "type": "function"
    },
    {
      "inputs": [],
      "name": "getLastWaver",
      "outputs": [
        {
          "internalType": "string",
          "name": "",
          "type": "string"
        }
      ],
      "stateMutability": "view",
      "type": "function"
    },
    {
      "inputs": [],
      "name": "getTotalWaves",
      "outputs": [
        {
          "internalType": "uint256",
          "name": "",
          "type": "uint256"
        }
      ],
      "stateMutability": "view",
      "type": "function"
    },
    {
      "inputs": [
        {
          "internalType": "address",
          "name": "",
          "type": "address"
        }
      ],
      "name": "lastWavedAt",
      "outputs": [
        {
          "internalType": "uint256",
          "name": "",
          "type": "uint256"
        }
      ],
      "stateMutability": "view",
      "type": "function"
    },
    {
      "inputs": [
        {
          "internalType": "string",
          "name": "_message",
          "type": "string"
        }
      ],
      "name": "wave",
      "outputs": [],
      "stateMutability": "nonpayable",
      "type": "function"
    }
  ],
  "bytecode": "0x60806040526200003360405180608001604052806045815260200162001c6a604591396200003960201b6200082f1760201c565b620001cd565b620000d98160405160240162000050919062000146565b6040516020818303038152906040527f41304fac000000000000000000000000000000000000000000000000000000007bffffffffffffffffffffffffffffffffffffffffffffffffffffffff19166020820180517bffffffffffffffffffffffffffffffffffffffffffffffffffffffff8381831617835250505050620000dc60201b60201c565b50565b60008151905060006a636f6e736f6c652e6c6f679050602083016000808483855afa5050505050565b600062000112826200016a565b6200011e818562000175565b93506200013081856020860162000186565b6200013b81620001bc565b840191505092915050565b6000602082019050818103600083015262000162818462000105565b905092915050565b600081519050919050565b600082825260208201905092915050565b60005b83811015620001a657808201518184015260208101905062000189565b83811115620001b6576000848401525b50505050565b6000601f19601f8301169050919050565b611a8d80620001dd6000396000f3fe608060405234801561001057600080fd5b50600436106100575760003560e01c80632bce00e21461005c578063449d46c01461007a5780639a2cdc0814610096578063a42a4663146100b4578063bd43a908146100e4575b600080fd5b610064610102565b60405161007191906111b3565b60405180910390f35b610094600480360381019061008f9190610f28565b61025d565b005b61009e61067b565b6040516100ab9190611311565b60405180910390f35b6100ce60048036038101906100c99190610eff565b6106c6565b6040516100db9190611311565b60405180910390f35b6100ec6106de565b6040516100f99190611191565b60405180910390f35b60606101cd6040518060400160405280600d81526020017f2573207761766564206c617374000000000000000000000000000000000000008152506001805461014a9061180b565b80601f01602080910402602001604051908101604052809291908181526020018280546101769061180b565b80156101c35780601f10610198576101008083540402835291602001916101c3565b820191906000526020600020905b8154815290600101906020018083116101a657829003601f168201915b50505050506108c8565b600180546101da9061180b565b80601f01602080910402602001604051908101604052809291908181526020018280546102069061180b565b80156102535780601f1061022857610100808354040283529160200191610253565b820191906000526020600020905b81548152906001019060200180831161023657829003601f168201915b5050505050905090565b42610384600460003373ffffffffffffffffffffffffffffffffffffffff1673ffffffffffffffffffffffffffffffffffffffff168152602001908152602001600020546102ab9190611423565b106102eb576040517f08c379a00000000000000000000000000000000000000000000000000000000081526004016102e2906112f1565b60405180910390fd5b42600460003373ffffffffffffffffffffffffffffffffffffffff1673ffffffffffffffffffffffffffffffffffffffff1681526020019081526020016000208190555060016000808282546103419190611423565b9250508190555061035133610964565b60019080519060200190610366929190610ddf565b506103a76040518060400160405280600f81526020017f257320776176656420772f2025732100000000000000000000000000000000008152503383610b99565b600360405180606001604052803373ffffffffffffffffffffffffffffffffffffffff16815260200183815260200142815250908060018154018082558091505060019003906000526020600020906003020160009091909190915060008201518160000160006101000a81548173ffffffffffffffffffffffffffffffffffffffff021916908373ffffffffffffffffffffffffffffffffffffffff1602179055506020820151816001019080519060200190610466929190610ddf565b506040820151816002015550506000606460025442446104869190611423565b6104909190611423565b61049a91906118b7565b90506104db6040518060400160405280600981526020017f6e756d626572206973000000000000000000000000000000000000000000000081525082610c38565b8060028190555060328110156106275761052a6040518060400160405280600a81526020017f257320697320706169640000000000000000000000000000000000000000000081525033610cd4565b60006509184e72a000905047811115610578576040517f08c379a000000000000000000000000000000000000000000000000000000000815260040161056f906112b1565b60405180910390fd5b60003373ffffffffffffffffffffffffffffffffffffffff168260405161059e9061117c565b60006040518083038185875af1925050503d80600081146105db576040519150601f19603f3d011682016040523d82523d6000602084013e6105e0565b606091505b5050905080610624576040517f08c379a000000000000000000000000000000000000000000000000000000000815260040161061b906112d1565b60405180910390fd5b50505b3373ffffffffffffffffffffffffffffffffffffffff167f5f7e16dc676677766a70e9c5628aa6c54ddb8b6e5188e2ae1e1f17f1ffbea716428460405161066f92919061132c565b60405180910390a25050565b60006106be6040518060400160405280601681526020017f5765206861766520256420746f74616c20776176657300000000000000000000815250600054610c38565b600054905090565b60046020528060005260406000206000915090505481565b60606003805480602002602001604051908101604052809291908181526020016000905b8282101561082657838290600052602060002090600302016040518060600160405290816000820160009054906101000a900473ffffffffffffffffffffffffffffffffffffffff1673ffffffffffffffffffffffffffffffffffffffff1673ffffffffffffffffffffffffffffffffffffffff16815260200160018201805461078b9061180b565b80601f01602080910402602001604051908101604052809291908181526020018280546107b79061180b565b80156108045780601f106107d957610100808354040283529160200191610804565b820191906000526020600020905b8154815290600101906020018083116107e757829003601f168201915b5050505050815260200160028201548152505081526020019060010190610702565b50505050905090565b6108c58160405160240161084391906111b3565b6040516020818303038152906040527f41304fac000000000000000000000000000000000000000000000000000000007bffffffffffffffffffffffffffffffffffffffffffffffffffffffff19166020820180517bffffffffffffffffffffffffffffffffffffffffffffffffffffffff8381831617835250505050610d70565b50565b61096082826040516024016108de92919061124a565b6040516020818303038152906040527f4b5c4277000000000000000000000000000000000000000000000000000000007bffffffffffffffffffffffffffffffffffffffffffffffffffffffff19166020820180517bffffffffffffffffffffffffffffffffffffffffffffffffffffffff8381831617835250505050610d70565b5050565b60606000602867ffffffffffffffff8111156109a9577f4e487b7100000000000000000000000000000000000000000000000000000000600052604160045260246000fd5b6040519080825280601f01601f1916602001820160405280156109db5781602001600182028036833780820191505090505b50905060005b6014811015610b8f5760008160136109f99190611718565b6008610a059190611683565b6002610a119190611565565b8573ffffffffffffffffffffffffffffffffffffffff16610a3291906114b0565b60f81b9050600060108260f81c610a4991906114e1565b60f81b905060008160f81c6010610a6091906116dd565b8360f81c610a6e919061174c565b60f81b9050610a7c82610d99565b85856002610a8a9190611683565b81518110610ac1577f4e487b7100000000000000000000000000000000000000000000000000000000600052603260045260246000fd5b60200101907effffffffffffffffffffffffffffffffffffffffffffffffffffffffffffff1916908160001a905350610af981610d99565b856001866002610b099190611683565b610b139190611423565b81518110610b4a577f4e487b7100000000000000000000000000000000000000000000000000000000600052603260045260246000fd5b60200101907effffffffffffffffffffffffffffffffffffffffffffffffffffffffffffff1916908160001a9053505050508080610b879061186e565b9150506109e1565b5080915050919050565b610c33838383604051602401610bb193929190611205565b6040516020818303038152906040527fe0e9ad4f000000000000000000000000000000000000000000000000000000007bffffffffffffffffffffffffffffffffffffffffffffffffffffffff19166020820180517bffffffffffffffffffffffffffffffffffffffffffffffffffffffff8381831617835250505050610d70565b505050565b610cd08282604051602401610c4e929190611281565b6040516020818303038152906040527f9710a9d0000000000000000000000000000000000000000000000000000000007bffffffffffffffffffffffffffffffffffffffffffffffffffffffff19166020820180517bffffffffffffffffffffffffffffffffffffffffffffffffffffffff8381831617835250505050610d70565b5050565b610d6c8282604051602401610cea9291906111d5565b6040516020818303038152906040527f319af333000000000000000000000000000000000000000000000000000000007bffffffffffffffffffffffffffffffffffffffffffffffffffffffff19166020820180517bffffffffffffffffffffffffffffffffffffffffffffffffffffffff8381831617835250505050610d70565b5050565b60008151905060006a636f6e736f6c652e6c6f679050602083016000808483855afa5050505050565b6000600a8260f81c60ff161015610dc45760308260f81c610dba9190611479565b60f81b9050610dda565b60578260f81c610dd49190611479565b60f81b90505b919050565b828054610deb9061180b565b90600052602060002090601f016020900481019282610e0d5760008555610e54565b82601f10610e2657805160ff1916838001178555610e54565b82800160010185558215610e54579182015b82811115610e53578251825591602001919060010190610e38565b5b509050610e619190610e65565b5090565b5b80821115610e7e576000816000905550600101610e66565b5090565b6000610e95610e9084611381565b61135c565b905082815260208101848484011115610ead57600080fd5b610eb88482856117c9565b509392505050565b600081359050610ecf81611a40565b92915050565b600082601f830112610ee657600080fd5b8135610ef6848260208601610e82565b91505092915050565b600060208284031215610f1157600080fd5b6000610f1f84828501610ec0565b91505092915050565b600060208284031215610f3a57600080fd5b600082013567ffffffffffffffff811115610f5457600080fd5b610f6084828501610ed5565b91505092915050565b6000610f75838361110e565b905092915050565b610f8681611780565b82525050565b610f9581611780565b82525050565b6000610fa6826113c2565b610fb081856113e5565b935083602082028501610fc2856113b2565b8060005b85811015610ffe5784840389528151610fdf8582610f69565b9450610fea836113d8565b925060208a01995050600181019050610fc6565b50829750879550505050505092915050565b600061101b826113cd565b6110258185611401565b93506110358185602086016117d8565b61103e816119a4565b840191505092915050565b6000611054826113cd565b61105e8185611412565b935061106e8185602086016117d8565b611077816119a4565b840191505092915050565b600061108f601d83611412565b915061109a826119c2565b602082019050919050565b60006110b2601983611412565b91506110bd826119eb565b602082019050919050565b60006110d56000836113f6565b91506110e082611a14565b600082019050919050565b60006110f8600883611412565b915061110382611a17565b602082019050919050565b60006060830160008301516111266000860182610f7d565b506020830151848203602086015261113e8282611010565b9150506040830151611153604086018261115e565b508091505092915050565b611167816117b2565b82525050565b611176816117b2565b82525050565b6000611187826110c8565b9150819050919050565b600060208201905081810360008301526111ab8184610f9b565b905092915050565b600060208201905081810360008301526111cd8184611049565b905092915050565b600060408201905081810360008301526111ef8185611049565b90506111fe6020830184610f8c565b9392505050565b6000606082019050818103600083015261121f8186611049565b905061122e6020830185610f8c565b81810360408301526112408184611049565b9050949350505050565b600060408201905081810360008301526112648185611049565b905081810360208301526112788184611049565b90509392505050565b6000604082019050818103600083015261129b8185611049565b90506112aa602083018461116d565b9392505050565b600060208201905081810360008301526112ca81611082565b9050919050565b600060208201905081810360008301526112ea816110a5565b9050919050565b6000602082019050818103600083015261130a816110eb565b9050919050565b6000602082019050611326600083018461116d565b92915050565b6000604082019050611341600083018561116d565b81810360208301526113538184611049565b90509392505050565b6000611366611377565b9050611372828261183d565b919050565b6000604051905090565b600067ffffffffffffffff82111561139c5761139b611975565b5b6113a5826119a4565b9050602081019050919050565b6000819050602082019050919050565b600081519050919050565b600081519050919050565b6000602082019050919050565b600082825260208201905092915050565b600081905092915050565b600082825260208201905092915050565b600082825260208201905092915050565b600061142e826117b2565b9150611439836117b2565b9250827fffffffffffffffffffffffffffffffffffffffffffffffffffffffffffffffff0382111561146e5761146d6118e8565b5b828201905092915050565b6000611484826117bc565b915061148f836117bc565b92508260ff038211156114a5576114a46118e8565b5b828201905092915050565b60006114bb826117b2565b91506114c6836117b2565b9250826114d6576114d5611917565b5b828204905092915050565b60006114ec826117bc565b91506114f7836117bc565b92508261150757611506611917565b5b828204905092915050565b6000808291508390505b600185111561155c57808604811115611538576115376118e8565b5b60018516156115475780820291505b8081029050611555856119b5565b945061151c565b94509492505050565b6000611570826117b2565b915061157b836117b2565b92506115a87fffffffffffffffffffffffffffffffffffffffffffffffffffffffffffffffff84846115b0565b905092915050565b6000826115c0576001905061167c565b816115ce576000905061167c565b81600181146115e457600281146115ee5761161d565b600191505061167c565b60ff841115611600576115ff6118e8565b5b8360020a915084821115611617576116166118e8565b5b5061167c565b5060208310610133831016604e8410600b84101617156116525782820a90508381111561164d5761164c6118e8565b5b61167c565b61165f8484846001611512565b92509050818404811115611676576116756118e8565b5b81810290505b9392505050565b600061168e826117b2565b9150611699836117b2565b9250817fffffffffffffffffffffffffffffffffffffffffffffffffffffffffffffffff04831182151516156116d2576116d16118e8565b5b828202905092915050565b60006116e8826117bc565b91506116f3836117bc565b92508160ff048311821515161561170d5761170c6118e8565b5b828202905092915050565b6000611723826117b2565b915061172e836117b2565b925082821015611741576117406118e8565b5b828203905092915050565b6000611757826117bc565b9150611762836117bc565b925082821015611775576117746118e8565b5b828203905092915050565b600061178b82611792565b9050919050565b600073ffffffffffffffffffffffffffffffffffffffff82169050919050565b6000819050919050565b600060ff82169050919050565b82818337600083830152505050565b60005b838110156117f65780820151818401526020810190506117db565b83811115611805576000848401525b50505050565b6000600282049050600182168061182357607f821691505b6020821081141561183757611836611946565b5b50919050565b611846826119a4565b810181811067ffffffffffffffff8211171561186557611864611975565b5b80604052505050565b6000611879826117b2565b91507fffffffffffffffffffffffffffffffffffffffffffffffffffffffffffffffff8214156118ac576118ab6118e8565b5b600182019050919050565b60006118c2826117b2565b91506118cd836117b2565b9250826118dd576118dc611917565b5b828206905092915050565b7f4e487b7100000000000000000000000000000000000000000000000000000000600052601160045260246000fd5b7f4e487b7100000000000000000000000000000000000000000000000000000000600052601260045260246000fd5b7f4e487b7100000000000000000000000000000000000000000000000000000000600052602260045260246000fd5b7f4e487b7100000000000000000000000000000000000000000000000000000000600052604160045260246000fd5b6000601f19601f8301169050919050565b60008160011c9050919050565b7f4f6f7073206e6f206d6f726520636f6e6365707475616c206275636b73000000600082015250565b7f4661696c656420746f2073656e64207465206d6f6f6e69657300000000000000600082015250565b50565b7f576169742031356d000000000000000000000000000000000000000000000000600082015250565b611a4981611780565b8114611a5457600080fd5b5056fea2646970667358221220b669758dda4e8d088d83927fd2436082d5e0fc73dba5e71c50f079a65418087464736f6c6343000804003369662077652068617665206120646563656e7472616c697a6564207765622c20686f77206973206d722e2073706964657220676f696e6720746f2063617463682062756773",
  "linkReferences": {},
  "deployedLinkReferences": {}
}