{
  "_format": "hh-sol-artifact-1",
  "contractName": "WavePortal",
  "sourceName": "contracts/WavePortal.sol",
  "abi": [
    {
      "inputs": [],
      "stateMutability": "nonpayable",
      "type": "constructor"
    },
    {
      "inputs": [],
      "name": "getLastWaver",
      "outputs": [
        {
          "internalType": "string",
          "name": "",
          "type": "string"
        }
      ],
      "stateMutability": "view",
      "type": "function"
    },
    {
      "inputs": [],
      "name": "getTotalWaves",
      "outputs": [
        {
          "internalType": "uint256",
          "name": "",
          "type": "uint256"
        }
      ],
      "stateMutability": "view",
      "type": "function"
    },
    {
      "inputs": [],
      "name": "wave",
      "outputs": [],
      "stateMutability": "nonpayable",
      "type": "function"
    }
  ],
  "bytecode": "0x60806040523480156200001157600080fd5b5062000041604051806080016040528060458152602001620010c6604591396200004760201b620002ab1760201c565b620001db565b620000e7816040516024016200005e919062000154565b6040516020818303038152906040527f41304fac000000000000000000000000000000000000000000000000000000007bffffffffffffffffffffffffffffffffffffffffffffffffffffffff19166020820180517bffffffffffffffffffffffffffffffffffffffffffffffffffffffff8381831617835250505050620000ea60201b60201c565b50565b60008151905060006a636f6e736f6c652e6c6f679050602083016000808483855afa5050505050565b6000620001208262000178565b6200012c818562000183565b93506200013e81856020860162000194565b6200014981620001ca565b840191505092915050565b6000602082019050818103600083015262000170818462000113565b905092915050565b600081519050919050565b600082825260208201905092915050565b60005b83811015620001b457808201518184015260208101905062000197565b83811115620001c4576000848401525b50505050565b6000601f19601f8301169050919050565b610edb80620001eb6000396000f3fe608060405234801561001057600080fd5b50600436106100415760003560e01c80632bce00e2146100465780636fe15b44146100645780639a2cdc081461006e575b600080fd5b61004e61008c565b60405161005b91906108b6565b60405180910390f35b61006c6101e7565b005b610076610260565b604051610083919061096f565b60405180910390f35b60606101576040518060400160405280600d81526020017f2573207761766564206c61737400000000000000000000000000000000000000815250600180546100d490610d7f565b80601f016020809104026020016040519081016040528092919081815260200182805461010090610d7f565b801561014d5780601f106101225761010080835404028352916020019161014d565b820191906000526020600020905b81548152906001019060200180831161013057829003601f168201915b5050505050610344565b6001805461016490610d7f565b80601f016020809104026020016040519081016040528092919081815260200182805461019090610d7f565b80156101dd5780601f106101b2576101008083540402835291602001916101dd565b820191906000526020600020905b8154815290600101906020018083116101c057829003601f168201915b5050505050905090565b60016000808282546101f991906109a6565b92505081905550610209336103e0565b6001908051906020019061021e9291906107bc565b5061025e6040518060400160405280600c81526020017f257320697320776176656421000000000000000000000000000000000000000081525033610615565b565b60006102a36040518060400160405280601681526020017f5765206861766520256420746f74616c207761766573000000000000000000008152506000546106b1565b600054905090565b610341816040516024016102bf91906108b6565b6040516020818303038152906040527f41304fac000000000000000000000000000000000000000000000000000000007bffffffffffffffffffffffffffffffffffffffffffffffffffffffff19166020820180517bffffffffffffffffffffffffffffffffffffffffffffffffffffffff838183161783525050505061074d565b50565b6103dc828260405160240161035a929190610908565b6040516020818303038152906040527f4b5c4277000000000000000000000000000000000000000000000000000000007bffffffffffffffffffffffffffffffffffffffffffffffffffffffff19166020820180517bffffffffffffffffffffffffffffffffffffffffffffffffffffffff838183161783525050505061074d565b5050565b60606000602867ffffffffffffffff811115610425577f4e487b7100000000000000000000000000000000000000000000000000000000600052604160045260246000fd5b6040519080825280601f01601f1916602001820160405280156104575781602001600182028036833780820191505090505b50905060005b601481101561060b5760008160136104759190610c9b565b60086104819190610c06565b600261048d9190610ae8565b8573ffffffffffffffffffffffffffffffffffffffff166104ae9190610a33565b60f81b9050600060108260f81c6104c59190610a64565b60f81b905060008160f81c60106104dc9190610c60565b8360f81c6104ea9190610ccf565b60f81b90506104f882610776565b858560026105069190610c06565b8151811061053d577f4e487b7100000000000000000000000000000000000000000000000000000000600052603260045260246000fd5b60200101907effffffffffffffffffffffffffffffffffffffffffffffffffffffffffffff1916908160001a90535061057581610776565b8560018660026105859190610c06565b61058f91906109a6565b815181106105c6577f4e487b7100000000000000000000000000000000000000000000000000000000600052603260045260246000fd5b60200101907effffffffffffffffffffffffffffffffffffffffffffffffffffffffffffff1916908160001a905350505050808061060390610db1565b91505061045d565b5080915050919050565b6106ad828260405160240161062b9291906108d8565b6040516020818303038152906040527f319af333000000000000000000000000000000000000000000000000000000007bffffffffffffffffffffffffffffffffffffffffffffffffffffffff19166020820180517bffffffffffffffffffffffffffffffffffffffffffffffffffffffff838183161783525050505061074d565b5050565b61074982826040516024016106c792919061093f565b6040516020818303038152906040527f9710a9d0000000000000000000000000000000000000000000000000000000007bffffffffffffffffffffffffffffffffffffffffffffffffffffffff19166020820180517bffffffffffffffffffffffffffffffffffffffffffffffffffffffff838183161783525050505061074d565b5050565b60008151905060006a636f6e736f6c652e6c6f679050602083016000808483855afa5050505050565b6000600a8260f81c60ff1610156107a15760308260f81c61079791906109fc565b60f81b90506107b7565b60578260f81c6107b191906109fc565b60f81b90505b919050565b8280546107c890610d7f565b90600052602060002090601f0160209004810192826107ea5760008555610831565b82601f1061080357805160ff1916838001178555610831565b82800160010185558215610831579182015b82811115610830578251825591602001919060010190610815565b5b50905061083e9190610842565b5090565b5b8082111561085b576000816000905550600101610843565b5090565b61086881610d03565b82525050565b60006108798261098a565b6108838185610995565b9350610893818560208601610d4c565b61089c81610e87565b840191505092915050565b6108b081610d35565b82525050565b600060208201905081810360008301526108d0818461086e565b905092915050565b600060408201905081810360008301526108f2818561086e565b9050610901602083018461085f565b9392505050565b60006040820190508181036000830152610922818561086e565b90508181036020830152610936818461086e565b90509392505050565b60006040820190508181036000830152610959818561086e565b905061096860208301846108a7565b9392505050565b600060208201905061098460008301846108a7565b92915050565b600081519050919050565b600082825260208201905092915050565b60006109b182610d35565b91506109bc83610d35565b9250827fffffffffffffffffffffffffffffffffffffffffffffffffffffffffffffffff038211156109f1576109f0610dfa565b5b828201905092915050565b6000610a0782610d3f565b9150610a1283610d3f565b92508260ff03821115610a2857610a27610dfa565b5b828201905092915050565b6000610a3e82610d35565b9150610a4983610d35565b925082610a5957610a58610e29565b5b828204905092915050565b6000610a6f82610d3f565b9150610a7a83610d3f565b925082610a8a57610a89610e29565b5b828204905092915050565b6000808291508390505b6001851115610adf57808604811115610abb57610aba610dfa565b5b6001851615610aca5780820291505b8081029050610ad885610e98565b9450610a9f565b94509492505050565b6000610af382610d35565b9150610afe83610d35565b9250610b2b7fffffffffffffffffffffffffffffffffffffffffffffffffffffffffffffffff8484610b33565b905092915050565b600082610b435760019050610bff565b81610b515760009050610bff565b8160018114610b675760028114610b7157610ba0565b6001915050610bff565b60ff841115610b8357610b82610dfa565b5b8360020a915084821115610b9a57610b99610dfa565b5b50610bff565b5060208310610133831016604e8410600b8410161715610bd55782820a905083811115610bd057610bcf610dfa565b5b610bff565b610be28484846001610a95565b92509050818404811115610bf957610bf8610dfa565b5b81810290505b9392505050565b6000610c1182610d35565b9150610c1c83610d35565b9250817fffffffffffffffffffffffffffffffffffffffffffffffffffffffffffffffff0483118215151615610c5557610c54610dfa565b5b828202905092915050565b6000610c6b82610d3f565b9150610c7683610d3f565b92508160ff0483118215151615610c9057610c8f610dfa565b5b828202905092915050565b6000610ca682610d35565b9150610cb183610d35565b925082821015610cc457610cc3610dfa565b5b828203905092915050565b6000610cda82610d3f565b9150610ce583610d3f565b925082821015610cf857610cf7610dfa565b5b828203905092915050565b6000610d0e82610d15565b9050919050565b600073ffffffffffffffffffffffffffffffffffffffff82169050919050565b6000819050919050565b600060ff82169050919050565b60005b83811015610d6a578082015181840152602081019050610d4f565b83811115610d79576000848401525b50505050565b60006002820490506001821680610d9757607f821691505b60208210811415610dab57610daa610e58565b5b50919050565b6000610dbc82610d35565b91507fffffffffffffffffffffffffffffffffffffffffffffffffffffffffffffffff821415610def57610dee610dfa565b5b600182019050919050565b7f4e487b7100000000000000000000000000000000000000000000000000000000600052601160045260246000fd5b7f4e487b7100000000000000000000000000000000000000000000000000000000600052601260045260246000fd5b7f4e487b7100000000000000000000000000000000000000000000000000000000600052602260045260246000fd5b6000601f19601f8301169050919050565b60008160011c905091905056fea2646970667358221220b14fa676626fe597d2603a6e827ac3c82f11a1b4561c6057e00ae8a47da2462564736f6c6343000804003369662077652068617665206120646563656e7472616c697a6564207765622c20686f77206973206d722e2073706964657220676f696e6720746f2063617463682062756773",
  "linkReferences": {},
  "deployedLinkReferences": {}
}